:020000040800F2
:10000000B8E30120A10100085B240008C71E000816
:10001000592400081305000851480008000000009A
:100020000000000000000000000000009130000807
:100030003D05000800000000D72500089D3000089D
:10004000BB010008BB010008BB010008BB010008A0
:10005000BB010008BB010008BB010008BB01000890
:10006000BB010008BB010008BB010008BB01000880
:10007000BB010008BB010008BB010008BB01000870
:10008000BB010008BB010008BB010008BB01000860
:10009000BB010008BB010008BB010008BB01000850
:1000A000BB010008BB010008BB010008BB01000840
:1000B000BB010008BB010008BB010008BB01000830
:1000C000BB010008BB010008BB010008BB01000820
:1000D000BB010008BB010008BB010008BB01000810
:1000E000BB010008BB010008BB010008BB01000800
:1000F000BB010008BB010008BB010008BB010008F0
:10010000BB010008BB010008BB010008BB010008DF
:10011000BB010008BB010008BB010008BB010008CF
:10012000BB010008BB010008BB010008BB010008BF
:10013000BB010008BB010008BB010008BB010008AF
:10014000BB010008BB010008BB0100085D240008DA
:10015000BB010008BB010008BB010008BB0100088F
:10016000BB010008BB010008BB010008BB0100087F
:10017000BB010008BB010008BB0100080000000033
:10018000BB010008BB010008DFF810D000F084F9C3
:100190000048004741790008AFF30080B8E3012030
:1001A0000648804706480047FEE7FEE7FEE7FEE711
:1001B000FEE7FEE7FEE7FEE7FEE7FEE7A130000808
:1001C000890100082DE9F05F0546002092469B4614
:1001D00088460646814640241BE02846414647465D
:1001E000224600F0EBF853465A46C01A914110D30C
:1001F00011461846224600F0D2F82D1A67EB010886
:100200004F4622460120002100F0C9F817EB0009F3
:100210004E41201EA4F10104DFDC484631462A4647
:100220004346BDE8F09F40EA01039B0703D009E085
:1002300008C9121F08C0042AFAD203E011F8013BD2
:1002400000F8013B521EF9D27047D2B201E000F82B
:10025000012B491EFBD270470022F6E710B513466A
:100260000A4604461946FFF7F0FF204610BD2DE967
:10027000FE4F81EA030404F0004421F000410094A1
:100280004FF0000B23F0004350EA01045ED052EA25
:1002900003045BD0C3F30A54C1F30A552C44A4F2FF
:1002A000F3340194A0FB0254C1F3130141F4801113
:1002B000C3F3130343F4801301FB024400FB034E1A
:1002C000840A970A44EA815447EA8357A4FB0768E3
:1002D00002958D0A05FB07854FEA932C04FB0C540D
:1002E0002705029D4FEA065847EA1637B5EB080581
:1002F0006EEB070C870E920E47EA811742EA8312D3
:10030000A7FB0201B6EB0B0164EB00042B0D43EAE3
:100310000C335E1844EB1C50DA465146E7FB0201F1
:10032000C5F313044FEA0B3343EA14534FEA043284
:10033000019C43EA0603A4F10C040294009CCDE95D
:1003400000B400F05AF803B0BDE8F08F0020014679
:10035000F9E70EB540F2334102910021CDE90011D9
:100360000A460B4600F049F803B000BDC1F30A523B
:1003700010B5C1F3130140F2FF3341F480119A42EA
:1003800001DA002010BD40F233439A42A2F2334218
:1003900003DC524200F012F810BD904010BD202A3C
:1003A00004DB203A00FA02F1002070479140C2F1CC
:1003B000200320FA03F3194390407047202A04DBFE
:1003C000203A21FA02F00021704721FA02F3D040CE
:1003D000C2F12002914008431946704710B5141E1F
:1003E00073F1000408DA401C41F1000192185B41EE
:1003F0001A4301D120F0010010BD2DE9F04D9246C5
:100400009B4611B1B1FA81F202E0B0FA80F22032DB
:100410009046FFF7C4FF04460F4640EA0A0041EA4F
:100420000B0153465A46084313D0114653EA0100C4
:1004300019D0C8F140025046FFF7C0FF05460E46EE
:10044000504659464246FFF7AAFF084305D001200F
:1004500004E020463946BDE8F08D0020054346EA19
:10046000E0762C4337430A986305E40AA0EB0800C2
:100470000022FD0A44EA47540A3002D50020014612
:10048000E9E7010510196941DDE9084500196941ED
:10049000BDE8F04DA2E70000064C074D06E0E0681D
:1004A00040F0010394E8070098471034AC42F6D3BB
:1004B000FFF76EFE84B10008C4B1000870B58C1857
:1004C00010F8015B15F0070301D110F8013B2A1168
:1004D00006D110F8012B03E010F8016B01F8016B55
:1004E0005B1EF9D12B0705D40023521E0DD401F851
:1004F000013BFAE710F8013BCB1A921C03E013F81A
:10050000015B01F8015B521EF9D5A142D8D300204E
:1005100070BDFEE707480168C90103D4016841F0D6
:1005200080710160044800214160016841F00101CF
:1005300001607047FCED00E0001000E0704772B60B
:10054000FEE7000070B5B3F5804F05D06FF0704145
:1005500040F82210002070BD50F82240084B8E89D0
:100560001C40D1E9003543EA05138D6889692D02E5
:1005700045EA06452B430B43234340F82230E9E785
:100580000000F0CFF0B50C6850F82430114A134049
:10059000D1E90125D1E903672A433E4332434E693D
:1005A00032438E693243CE6932430E6A32434E6A19
:1005B00032438E6A3243CE6A3243CE6B096B32438A
:1005C0000A431A43082D01D142F0400240F824208A
:1005D0000020F0BD8000F0FF30B500EB82025068D3
:1005E0008D8900F04043D1E9000440EA04108C6892
:1005F000240244EA054420430C8A074D05EB0454C9
:1006000020430C7D6D0105EB046489692043084398
:1006100018435060002030BD0000F0FF70B5044664
:1006200000F05EF90546601C02D0044800780444DE
:1006300000F056F9401BA042FAD370BD0000002024
:10064000F0B587B014216846FFF706FE1A48016826
:1006500000292FD10121016018480024016841F0D0
:10066000010101600068022500F00100059041F2DF
:100670000100CDE9000502AA03260C2782E8D0007C
:1006800069460F4800F022F84FF68070CDE900056A
:1006900002AA694682E8D0000A4800F017F84CF236
:1006A0003370CDE9000502AA694682E8D000064809
:1006B00000F00CF807B0F0BD00C00120383802404F
:1006C0000018024000100240000C02402DE9F84FD3
:1006D000DFF8B8A1002201250AF1040B03264FF030
:1006E0000F090BF1040E00BF0B6805FA02F423405A
:1006F000A3426FD10F7907F00307012F01D0022F1A
:1007000016D187684FEA420806FA08FC27EA0C0768
:10071000D1F80CC00CFA08FC4CEA070CC0F808C071
:100720004768A7430C79C4F3001494403C434460E9
:100730000C79E443A4070AD0C4684FEA420C06FAD5
:100740000CF7BC438F6807FA0CF72743C7600C7996
:1007500004F00304022C12D1D40800EB840CDCF862
:1007600020405707FF0E09FA07F824EA0804D1F8D9
:10077000108008FA07F848EA0408CCF820800468DA
:100780004FEA420C06FA0CF7BC430F7907F0030757
:1007900007FA0CF7274307604C68E40070D53C4C1F
:1007A000276847F480472760246822F0030704F491
:1007B00080440094374C07EB040CDCF8084897079A
:1007C0004FEA177809FA08F7BC43334FB84202D111
:1007D000002724E054E0314FB84201D101271EE048
:1007E0002F4FB84201D1022719E02E4FB84201D154
:1007F000032714E02C4FB84201D104270FE02B4F00
:10080000B84201D105270AE0294FB84201D1062795
:1008100005E0284FB84201D1072700E0082707FA72
:1008200008F72743CCF80878DAF800405746D1F8A3
:1008300004C09C435FEACC3C00D51C433C60DBF821
:1008400000405F46D1F804C09C435FEA8C3C00D571
:100850001C433C60DEF800407746D1F804C09C435E
:100860005FEACC2C00D51C433C60084F0C373C6839
:10087000D1F804C09C435FEA8C2C00D51C433C603B
:10088000521C102AFFF430AFBDE8F88F003C014045
:1008900044380240003001400000024000040240A1
:1008A00000080240000C0240001002400014024008
:1008B00000180240001C0240426921EA02030A407B
:1008C00043EA0241816170470AB1816170470904BE
:1008D000FBE7000001480068000C7047002004E0BE
:1008E00001488068704700000000002002488168CD
:1008F0000278114481607047000000200B4810B559
:10090000016841F400710160016841F48061016097
:10091000016841F480710160032000F06FF80F203E
:1009200000F006F800F024F8002010BD003C024062
:1009300070B50D4D04464FF47A712878B1FBF0F094
:100940000A490968B1FBF0F001F0EAF948B9102C46
:1009500007D200222146501E00F030F800206C60C3
:1009600070BD012070BD0000000000200C000020C0
:100970000A4808B5016841F480410160006800F44C
:10098000804000900548001F016841F080510160DF
:10099000006800F08050009008BD0000443802401C
:1009A000002809DB00F01F0201219140400980006E
:1009B00000F1E020C0F8001170470000F0B40E4BC9
:1009C0001B680C46C3F30223C3F10705042D00D9AD
:1009D0000425191D072901D2002300E0DB1E012692
:1009E00006FA05F1491E214099409E40761E1640A8
:1009F0003143F0BC03F036BF0CED00E0064900F0D7
:100A0000070208684FF6FF03184040EA0220034A35
:100A100010430860704700000CED00E00000FA058C
:100A200070470068416200207047F0B50368586A5B
:100A300039B19C6A4FF4827600EB144400204D1EBD
:100A40000AE040EA024098620FE006EB8007DF59B7
:100A5000401C04EB1744C0B2A842F6D344EA02405B
:100A60004FF4807202EB810158500020F0BD00006D
:100A7000034A01211170D0F8040402F0DBBD00002C
:100A8000B7C00120C1EBC10200EB8202D0F8040420
:100A9000926C02F045BDC1EBC10200EB8202D0F8BE
:100AA0000404D2F8082202F08FBD000010B50649F8
:100AB00004460020087005A003F0CCFED4F804041E
:100AC000BDE8104002F0B8BDB7C001205553422028
:100AD00044657669636520446973636F6E6E656310
:100AE0007465642E0D0A000070B504460B0601F013
:100AF0000F00C0EBC00104EB81014FF001024FF089
:100B0000000503D581F83D203C3103E081F8FD511B
:100B100001F5FE71087094F8BC03012808D084F830
:100B2000BC23206803F02CFA84F8BC53002070BD6D
:100B3000022070BD70B5044601F00F00626890425B
:100B400001D9012070BD0B0601F00F01C1EBC101FD
:100B500004EB81014FF001024FF0000503D581F84D
:100B60003D203C3103E081F8FD5101F5FE718D70AF
:100B7000087094F8BC03012808D084F8BC232068CE
:100B800003F0F8FB84F8BC53002070BD022070BD58
:100B900010B5044690F8BC0301280AD0012084F85F
:100BA000BC03080607D501F00F01206803F044FDDF
:100BB00004E0022010BD206803F02EFD002084F820
:100BC000BC0310BD01F00F01C1EBC10100EB8100BE
:100BD000D0F8140270472DE9F04104460F0601F0E9
:100BE0000F00C0EBC00104EB81014FF001064FF094
:100BF000000503D581F83D603C3103E081F8FD51EB
:100C000001F5FE7108708A60CB704A7802B1C88025
:100C1000022B00D10D7194F8BC03012809D084F88F
:100C2000BC63206803F008F9284684F8BC53BDE88B
:100C3000F0810220FBE770B50C4601F00F05C5EB13
:100C4000C50100EB8101C1F81032C1F80822002370
:100C5000C1F8143281F8FD3181F8FC51036901F5C6
:100C6000FE71012B00D10A612207027C006803D0CB
:100C700003F0D8FB002070BD03F0C4FAFAE770B5AA
:100C800004460D4601F00F006168884201D9012039
:100C900070BD29064FF000064FF0010207D5C0EBEA
:100CA000C00104EB810181F83D203C3107E0C5EB38
:100CB000C50104EB810181F8FD6101F5FE718A70C7
:100CC000087094F8BC03012807D084F8BC2320687E
:100CD00003F07CFB280702D007E0022070BD217CD6
:100CE00004F57172206803F019FB84F8BC630020DE
:100CF00070BD70B50C4601F00F05C5EBC50100EBEA
:100D000081010B658A6400234B65012381F83D3026
:100D100001F83C5F0369012B00D10A612207027CC4
:100D2000006803D003F07EFB002070BD03F06AFA78
:100D3000FAE700002DE9FC5F05680446284603F049
:100D40009AFC00287ED1206803F0C1FC002879D0ED
:100D5000206803F0BCFC800704D52168486900F0D6
:100D600002004861206803F0B2FCC10604F571700E
:100D7000009034D52068816921F0100181612F6ACB
:100D800007F00F00C0EBC00004EB8006C7F3434040
:100D900006F5FE76022802D0062811D01AE047F6A2
:100DA000F070074216D0C7F30A1217462846F168BA
:100DB00003F091FCF0683844F060B069384408E012
:100DC00008222846009903F086FCB069C7F30A118F
:100DD0000844B0612068816941F010018161206898
:100DE00003F075FC00034FF0010A4FF0080B5BD5D0
:100DF0000026206803F04AFC0746DFF8689351E0BC
:100E0000F8074DD0F1B2206803F059FC8046C007C6
:100E100007D005EB4611C1F808AB3146204601F07A
:100E200023FB5FEA087022D505EB4611C1F808BB29
:100E30002068016C00EB46100191D0F8082B494561
:100E400007D900E08BE1110403D54FF40041C0F84D
:100E5000081B204600F0B8FA0198484507D92069D8
:100E6000012804D120680121009A03F057FA5FEAB3
:100E7000C86004D505EB46111020C1F8080B5FEAE5
:100E8000886004D505EB46112020C1F8080B5FEA05
:100E9000884005D505EB46104FF40051C0F8081BFB
:100EA0007F08761C002FABD1206803F010FC4003B4
:100EB0004FF000095CD5206803F0E1FB07460026EF
:100EC00054E0F80750D0F1B2206803F0E6FB80460A
:100ED000C00723D006F00F020AFA02F0D5F8342832
:100EE0008243C5F8342805EB4610C0F808A92069EC
:100EF00001280FD1C6EBC60004EB8000D0E9112118
:100F00001144816436B9206D20B920680121009A0E
:100F100003F004FAF1B22046FFF7B4FD5FEA08706F
:100F200003D505EB4611C1F808B95FEAC86004D5DE
:100F300005EB46111020C1F808095FEA486004D5A6
:100F400005EB46114020C1F808095FEA887004D516
:100F500005EB46110220C1F808095FEA086003D5D5
:100F60003146204601F0E6FA7F08761C002FA8D112
:100F7000206803F0ACFB002811DAD5F8040820F053
:100F80000100C5F8040894F8F403012829D020468C
:100F900000F0ECF92068416901F0004141612068EE
:100FA00003F095FB00050BD5D5F80808C00702D063
:100FB000204600F031FA2068416901F40061416186
:100FC000206803F084FBC00468D5D5F8040820F03D
:100FD0000100C5F804081021206803F02DFB002152
:100FE00027E084F8F49300212046FFF719FDD1E7AC
:100FF00005EB41104FF67F32C0F80829D0F80039D0
:1010000023F40013C0F80039D0F8003943F000632E
:10101000C0F80039C0F8082BD0F8002B22F40012D9
:10102000C0F8002BD0F8002B42F00062C0F8002B73
:10103000491C60688842DBD8D5F81C0840F00110D4
:10104000C5F81C08206B60B1D5F8840840F00B008F
:10105000C5F88408D5F8440840F00B00C5F84408EA
:101060000CE0D5F8141842F22B000143C5F814180F
:10107000D5F8100840F00B00C5F81008D5F80008A6
:1010800020F4FE60C5F80008217C2068009A03F077
:1010900045F92068416901F480514161206803F0FD
:1010A00016FB800415D5206802F006FF206803F0C7
:1010B000D5FAE06000F078FA0146227B206803F060
:1010C00041FB204600F00CF92068416901F4005111
:1010D0004161206803F0FBFA000707D5204600F0C5
:1010E0005BF92068416901F008014161206803F063
:1010F000EEFAC00208D50021204600F035F820683D
:10110000416901F480114161206803F0E0FA800236
:1011100008D50021204600F02BF82068416901F431
:1011200000114161206803F0D2FA400007D5204643
:10113000FFF79EFC2068416901F080414161206811
:1011400003F0C5FA40070AD520684568680702D54C
:101150002046FFF7ABFC2068416829434160BDE8A9
:10116000FC9F00000A30544FD0F8040402F0BABAD1
:10117000D0F8040402F0C6BA2DE9F0418AB00400A8
:1011800005D094F8BD032668002520B108E00120B1
:101190000AB0BDE8F08184F8BC53204600F05EF848
:1011A000032084F8BD03F06BC00500D425612068DE
:1011B00003F022F804F11001282288466846FFF760
:1011C00032F894E80F0002F085FE0226C8BB002129
:1011D000206803F08EFA002001270EE0C0EBC0016A
:1011E00004EB810181F83D7001F83C0FC880CD709F
:1011F0008D60CD60401CC0B24D6161688142EDD808
:10120000002011E0C0EBC00104EB810181F8FD5129
:1012100081F8FC0181F8FF51C1F80452C1F808526D
:10122000401CC0B2C1F8105261688142EAD828223D
:1012300041466846FEF7F7FF94E80F0002F022FFF0
:1012400010B184F8BD63A2E784F8385084F8BD7308
:10125000206802F009FF00209AE7000010B586B070
:10126000044614216846FEF7F7FF2068B0F1A04F4E
:101270002FD119480021026842F001020260006883
:1012800000F0010005904FF4C05000900220CDE91D
:101290000101032003900A20049069460F48FFF7DC
:1012A00015FA0D48001D016841F0800101600A48EF
:1012B0001430016841F4804101600068002200F4AC
:1012C0008040059001214320FFF778FB4320FFF782
:1012D00067FB06B010BD000030380240000002403D
:1012E00070B50446C068012518B1022806D00AA0CE
:1012F00005E010A003F0AEFA002502E014A003F010
:10130000A9FA2946D4F8040402F068FAD4F80404CF
:10131000BDE8704002F01BBA55534220446576691F
:101320006365204C69627261727920205B46533F8D
:101330005D0D0A0055534220446576696365204C73
:1013400069627261727920205B48535D0D0A00006A
:1013500055534220446576696365204C6962726129
:10136000727920205B46535D0D0A000010B50446DB
:1013700004A003F06FFAD4F80404BDE8104002F0B2
:1013800013BA000044657669636520526573756D14
:1013900065640D0A00000000D0F8040402F00EBAE3
:1013A00010B5044690F8BC0301280BD0012084F846
:1013B000BC0384F83810206803F0B2F9002084F8E8
:1013C000BC0310BD022010BDD0F8042400F57171DB
:1013D000104602F015BA10B50446006894F8BC1324
:1013E000012906D0012184F8BC13A16A012902D089
:1013F00008E0022010BDA169012903D0816B41F4EE
:1014000080318163206803F001F9206802F01EFE3C
:10141000002084F8BC0310BD10B50D49044600201F
:1014200008700CA003F016FAD4F8040402F02AFAAB
:101430002068D0F8001E41F00101C0F8001E206AAB
:10144000002804D00A48016841F00601016010BD7F
:10145000B7C0012044657669636520496E207375C5
:101460007370656E64206D6F64652E0D0A00000058
:1014700010ED00E02DE9F0470E46050065D0DFF8DD
:101480001481D8F80000F7B200F00700B04207D28C
:1014900088F80070D8F8000000F00700B04254D17E
:1014A00028683D4C810712D5400703D5206840F4D9
:1014B000E05020602878000703D5206840F46040A1
:1014C00020602068A96820F0F00008432060287898
:1014D000C0072DD0304968680839012812D0022889
:1014E00013D0032811D00968890700292DDA216853
:1014F00021F0030101432160FFF7F2F9814641F237
:10150000883A0EE009688903EFE709688901ECE78A
:10151000FFF7E6F9A0EB0901514502D90320BDE828
:10152000F0872068696800F00C00B0EB810FEFD104
:10153000D8F80010404601F00701B14207D9077002
:10154000006800F00700B04201D00120E7E72878EA
:10155000400705D52068E96820F4E0500843206082
:101560002878000706D52068296920F4604040EA01
:10157000C100206000F03EF82168084AC1F3031161
:10158000515CC8400649086006480068FFF7D0F97A
:101590000020C4E7003C024008380240B081000847
:1015A0000C00002004000020014800687047000083
:1015B0000C0000200448054900680968044AC1F38A
:1015C0008221515CC84070470C000020083802405E
:1015D000C08100080448054900680968044AC1F34D
:1015E0004231515CC84070470C000020083802406E
:1015F000C0810008154810B5006810F00C021448AE
:1016000013D04110042A0FD0082A0ED10F4C241FEA
:101610002268236802F03F025B0207D52068C0F30E
:101620008810A0FB010106E0084610BD2168C1F347
:101630008811A1FB00010023FEF7C4FD2168C1F35E
:101640000141491C4900B0FBF1F010BD08380240CF
:101650000024F4002DE9F84F04006ED02078DFF864
:101660004C93C007A9F104054AD009F104000168B0
:10167000C1F38101012908D00068C0F3810002286C
:101680000AD1D9F80000400206D52868800337D572
:1016900060680028E1D033E06068B0F5803F10D08A
:1016A000B0F5A02F286810D020F48030286028687A
:1016B00020F4802028606068A8B1FFF711F9064681
:1016C0000DE0286840F48030F4E740F48020286082
:1016D000F7E700BFFFF704F9801B642873D8286878
:1016E0008003F7D50CE0FFF7FBF8064605E000BFE6
:1016F000FFF7F6F8801B6428F0D828688003F7D439
:101700002078DFF8AC8280074FF0000A3ED5A7486A
:10171000001D016811F00C0F08D00068C0F38100B3
:1017200002280BD1D9F80000400207D428688007AE
:1017300016D5E068012800D112E033E1E068B8B1C5
:101740000120C8F80000FFF7CBF8064605E000BF0F
:10175000FFF7C6F8801B0228C0D828688007F7D595
:101760002868216920F0F80040EAC10028600DE0F7
:10177000C8F800A0FFF7B4F8064604E0FFF7B0F899
:10178000801B02281FD828688007F7D4207800071C
:1017900022D5864F87486169703771B10121016098
:1017A000FFF79EF8064604E0FFF79AF8801B022830
:1017B00009D838688007F7D50EE0C0F800A0FFF719
:1017C0008FF8064605E082E0FFF78AF8801B0228C2
:1017D0007DD838688007F7D42078400768D5DFF8CF
:1017E000CCB100270BF13C0BDBF80000C0000BD4A0
:1017F000DBF8001041F08051CBF80010DBF800005E
:10180000012700F0805000906B4E3068C00510D466
:10181000306840F480703060FFF762F8009005E0B7
:10182000FFF75EF80099401A022850D83068C005CA
:10183000F6D55E4EA0686C3601280FD005283068BA
:1018400010D020F001003060306820F004003060DB
:10185000A068B8B1FFF744F800900FE0306840F09E
:101860000100F4E740F004003060F7E7FFF738F8D4
:101870000099411A41F28830814266D83068800769
:10188000F4D50EE0FFF72CF8009007E0FFF728F8FA
:101890000099411A41F28830814256D83068800759
:1018A000F4D42FB1DBF8001021F08051CBF80010F8
:1018B000A069C8B33D49091D0968C1F38101022926
:1018C0004AD00228504607D0C8F8600000E03CE04B
:1018D000FFF706F804463BE04746C8F86000FEF70D
:1018E000FFFF064605E000BFFEF7FAFF801B022857
:1018F0002BD828688001F7D4D4E907010843A16AEE
:101900002E4A490802EB0141626A41EA821108430A
:1019100094F82C1040EA0161C9F8001001203866E3
:10192000FEF7DEFF044606E03EE000BFFEF7D8FF0C
:10193000001B022809D828688001F7D534E000BFD1
:10194000FEF7CEFF001B022802D90320BDE8F88F66
:1019500028688001F4D427E00128F7D0D9F80000E6
:10196000E26900F4800191421CD1226A00F03F013B
:10197000914217D147F6C071626A0140B1EB821FF4
:1019800010D1A26A4FF0FF3300F4403103EB520252
:10199000B1EB024F06D194F82C1000F07060B0EB60
:1019A000016F01D00120D1E70020CFE704380240C9
:1019B00000004742800E4742007000400000FFFFD9
:1019C00070B5040009D0606A002540B125616561E9
:1019D000A56294F8510040B10CE0012070BD606830
:1019E000B0F5827FF4D0E561F2E784F850502046EC
:1019F00000F044F8022084F851002068016821F0CA
:101A000040010160A088218900F4827001F4044142
:101A10000843A18901F400610843217C01F002011F
:101A20000843217D01F001010843218B01F400717D
:101A30000843217F01F03801084394F8201001F099
:101A400080010843218D01F400510843216808609A
:101A5000A069042101EA104094F8241001F010015B
:101A60000843216848602068C16921F40061C161B0
:101A70006565012084F85100002070BD10B586B066
:101A8000044614216846FEF7E7FB134920688842A4
:101A900020D112480021026842F4804202600068AE
:101AA00000F4804005900D481038026842F48072BE
:101AB0000260006800F4807005900E200090022003
:101AC000CDE90101032003900520049069460448F4
:101AD000FEF7FCFD06B010BD003800404038024063
:101AE000002002402DE9F84F044690F850000027EE
:101AF0000A9E1D4692468B464FF0010901280ED0E2
:101B0000012084F85000FEF7EBFE804694F8510067
:101B1000616801280CD0B1F5827F07D102E0022074
:101B2000BDE8F88FA16809B9042801D00227C2E0F6
:101B3000BBF1000F27D0BAF1000F24D01DB394F8E9
:101B40005100042802D0052084F85100002060656F
:101B5000C4F838A0E587A587C4F830B0E586A58627
:101B60002064606420680168490603D4016841F07C
:101B700040010160E068B0F5006F606805D0E8B32F
:101B8000012D46D07FE0012795E008B1012D39D124
:101B9000206B21680088C860206B801C2063E08E69
:101BA000401EE0862EE02068816889070FD5E18E0F
:101BB00069B1B9F1010F0AD1216B0988C160206BAD
:101BC000801C2063E08E401EE0864FF000092068F4
:101BD0008168C9070CD0E18F51B1C068A16B088042
:101BE000A06B801CA063E08F401EE0874FF00109CE
:101BF000FEF776FEA0EB0800B04200E009E001D35A
:101C0000701C50D1E08E0028CDD1E08F0028CAD1C1
:101C10003FE0206B216800780873206B401C206334
:101C2000E08E401EE0862EE02068816889070FD58F
:101C3000E18E69B1B9F1010F0AD1216B0978017305
:101C4000206B401C2063E08E401EE0864FF00009B0
:101C500020688168C9070CD0E18F51B1C068A16BC1
:101C60000870A06B401CA063E08F401EE0874FF01F
:101C70000109FEF735FEA0EB0800B04202D3701C4C
:101C800001D010E07EB1E08E0028CDD1E08F002899
:101C9000CAD142463146204601F01CF928B101273D
:101CA0002020606507E0032705E0A06818B92068D8
:101CB000C16880680090012084F85100002084F8F9
:101CC000500038462CE770B515460E46040003D088
:101CD00094F8490010B107E0012070BD002084F89D
:101CE0004800204600F01AF804F108012068FEF7C9
:101CF00049FC3146A2682068FEF76EFCD4E9010277
:101D00002946236BFEF71EFCA168206850F82120AD
:101D100042F0010240F82120002070BDFEF790BC87
:101D200010B5401EB0F1807F01D3012010BD4FF0EF
:101D3000E02460610F21601702F094FD0020A06193
:101D400007202061002010BD70B5040004D094F875
:101D50003D00002510B106E0012070BD84F83C5024
:101D6000204600F023F8242084F83D002068C16854
:101D700021F40051C160204601F09AF92068016900
:101D800021F4904101612068416921F02A014161FB
:101D90002068C16841F40051C1602564202084F8A6
:101DA0003D0084F83E00002070BD000010B586B0F4
:101DB000044614216846FEF74FFA1349206888420A
:101DC00020D112480021026842F01002026000682F
:101DD00000F0100005900D481438026842F002022D
:101DE0000260006800F002000590C0200090022010
:101DF000CDE90101032003900720049069460448BF
:101E0000FEF764FC06B010BD0010014044380240EB
:101E1000000402402DE9F843044690F83D001F46B7
:101E200016460D4620284CD1C5B1BEB194F83C00F1
:101E3000012846D0012084F83C004FF00008C4F887
:101E40004080212084F83D00FEF74AFDA6848146AB
:101E5000E684A068B0F5805F03D004E00120BDE80F
:101E6000F883206928B12E465FF0000584F83C8095
:101E70000EE00026FAE78021204601F09FF9A0B984
:101E8000AEB116F8010B21684860E08C401EE0847A
:101E9000E08C4B464FF0000200970028EBD14FF04A
:101EA0004001204601F08AF930B10320D7E735F828
:101EB000020BC0F30800E6E7202084F83D00002074
:101EC000CDE70220CBE7FEE7F0B500230A2430255A
:101ED00037261F4611E000BFB4EB107F02D905EB97
:101EE000107C01E006EB107C01F813C001EB430C01
:101EF00000015B1C8CF80170DBB29342ECD3F0BDA7
:101F0000054808B5016841F010010160006800F063
:101F10001000009008BD000030380240054808B5A8
:101F2000016841F010010160006800F010000090AD
:101F300008BD000030380240064B30B1012807D1FF
:101F4000012202211846FEF7BFBC01221146F9E723
:101F50007047000000100240064B30B1012807D145
:101F6000002202211846FEF7AFBC00220121F9E74A
:101F70007047000000100240054A28B1012805D131
:101F800002211046FEF798BC0121FAE770470000D5
:101F90000010024070B5D0F8BC420546002C1CD0A1
:101FA00004F50041087F38B9886928B1607A18B90A
:101FB0000121284601F054FC8121284601F050FC03
:101FC000607A022809D18121284601F049FC28467F
:101FD000BDE87040012101F043BC70BD2DE9F04126
:101FE000D0F8BC420646002C59D004F5004501212A
:101FF00068696863A869A863304601F032FB1F284E
:102000000AD128492869884206D1697F012903D865
:10201000A87F08B1102808D9697F202305223046FF
:1020200000F02AFE022060720AE048F21F00221827
:10203000304600F01FFB0028207A08DA052804D07B
:102040003046BDE8F041FFF7A5BF012122E002289C
:1020500025D0012823D0032821D0E768CFB1D6F8B6
:10206000BC52304605F5004104F110028B69BB42B9
:1020700000D33B46002D12D08C6BE41B8C630024F4
:1020800081F83C4004212972BDE8F041812101F032
:1020900002BC00213046BDE8F04100F0AFB8BDE819
:1020A000F08100005553424310B5D0F8BC220446DD
:1020B000002A16D0507A022809D0090611D5012825
:1020C0000FD02046BDE81040012100F097B88121D3
:1020D000204601F0C5FB2046BDE81040012101F07B
:1020E000BFBB10BD10B5D0F8BC220446002A18D0E2
:1020F000107A022805D0032801D0042811D100212C
:102100000AE048F21D00815C801C0244204600F079
:10211000B1FA002805DA01212046BDE8104000F0A0
:102120006DB810BD10B5D0F8BC220446002A18D0F6
:10213000107A88B1012814D148F21D00815C801CFE
:102140000244204600F096FA00280ADA2046BDE84C
:102150001040012100F052B82046BDE81040FFF7C2
:102160003DBF10BDD0F8BC02002801D00021017293
:10217000704770B5D0F8BC420546002C20D0002135
:10218000217204F50042617282F8611002F8601F4A
:102190009170D5F8C00201680020884701212846C7
:1021A00001F056FA8121284601F052FA48F2100057
:1021B00022182846BDE870401F23012101F0BEBA55
:1021C00070BD70B5D0F8BC420546002C15D000207B
:1021D0002072012060728121284601F08FF90121CF
:1021E000284601F08BF948F2100022182846BDE875
:1021F00070401F23012101F0A1BA70BD70B5D0F865
:10220000BC420546002C19D004F500420C4810636E
:1022100082F83C100020207248F2300022180D2372
:102220008121284601F037FB48F210002218284689
:10223000BDE870401F23012101F080BA70BD00008D
:102240005553425300B58FB01C216846FEF704F881
:102250001C2107A8FEF700F81B484FF02041102270
:1022600001601A494160062181600021C160C0E916
:1022700004128161C16113020162C0E90913930272
:10228000C0E90B13416381634164022000900F2079
:102290000523CDE901030DF10C0C11238CE80E0090
:1022A0000691CDE907100DF1240CFF208CE80F00FA
:1022B0000D9107AA69460448FFF705FD002801D0E3
:1022C000FEF73DF90FB000BD08C10120040100A0D8
:1022D0002DE9F04387B014216846FDF7BDFF3A4869
:1022E0000025016841F010010160016801F0100152
:1022F0000591016841F080010160016801F08001F1
:102300000591016841F040010160016801F0400160
:102310000591016841F008010160016801F00801C0
:102320000591016841F001010160016801F00101BE
:102330000591016841F480710160016801F48071C8
:102340000591016841F00201016000681F4F00F033
:1023500002004FF400760590002231463846FEF721
:10236000B3FADFF86C80002201214046FEF7ACFA98
:10237000DFF86090012203214846FEF7A5FA1C20F1
:10238000CDE900050124694602944846FEF79EF90E
:102390000096CDE90145694638460395FEF796F962
:1023A0000326CDE902460094694640460194FEF7B3
:1023B0008DF90096CDE90145694648460395FEF73B
:1023C00085F907B0BDE8F08330380240001C0240B8
:1023D0000020024000100240104810B50E49016074
:1023E0004FF482714160002102228160C0E9031232
:1023F000012242615202C0E906210162416281620A
:102400000A21C162FFF7DCFA002803D0BDE81040C2
:10241000FEF795B810BD00000038004058C10120FB
:102420000C4810B50A4901604FF4E13141600021C8
:1024300081600C22C160C0E904128161C161FFF7B3
:1024400083FC002803D0BDE81040FEF778B810BD2B
:102450000010014060030020FEE7FEE70148FEF7A0
:1024600069BC0000B0DA01202DE9F04103680D4697
:1024700004461E6C03EB4511D1F8080BD4F810E0AC
:102480004FF400474FF0200C04F57172BEF1010FBC
:1024900009D0DFF898E0764539D1020432D500BF83
:1024A000C1F8087B3FE0224B5FEA007E04D59E42E4
:1024B00039D90004F4D436E05FEA806E02D5C1F861
:1024C00008CB30E010F0280F2DD19E4201D9000436
:1024D000E6D4C5EBC50004EB8000D1F8101BD0F8A2
:1024E0000432C1F31201591AC0F81412D0F80812BC
:1024F0001944C0F8081295B9D4F8100278B901212E
:1025000020680AE080060AD5C1F808CB07E035B993
:10251000D4F8100218B90021184601F0FFFEE9B204
:102520002046FEF7B8FA0020BDE8F0810A31544F8A
:102530000A30544F2DE9F84F0E46C1EBC60100EBAF
:10254000810481460568D4E914103C34884202D9DC
:102550000120BDE8F88F081AA168814200D2084620
:10256000C01C870805EB46181BE000BFA0EB010A62
:10257000A068504500D282460AF10300870899F806
:10258000100000901FFA8AF3F2B22846E16802F0C8
:102590004DF9E16801EB0A00E060A16901EB0A0076
:1025A000A061D8F8180980B2B84205D3D4E9050172
:1025B000814201D20028D9D1D4E90501884208D846
:1025C00006F00F0101208840D5F834188143C5F882
:1025D00034180020BDE7704730B5D0F8BC424FF04A
:1025E000FF354CB104F500441A44A36E9A4205D954
:1025F0002123052200F040FB284630BD002030BDDD
:1026000070B50546D0F8BC0213464FF0FF3480B1D8
:1026100000F50042966976B15E78F60714D0997895
:1026200061B180290DD0517F24230522284600F076
:1026300023FB204670BD517F2023F6E706220B497D
:102640000FE008220A490CE0D5F8C02201EBC101D5
:102650001B79D26902EB81010A79521D934200D89D
:102660001A4600F060FB002070BD00009AC00120F7
:10267000480000202DE9F041D0F8BC424FF0FF3671
:1026800054B3137802270025252B7DD00FDC1A2B9D
:102690005FD005DC0BB3032B23D0122B17D124E022
:1026A0001B2B26D01E2B48D0232B10D168E05A2B91
:1026B0005AD006DC282B6FD02A2B75D02F2B06D1B1
:1026C0007AE09E2B64D0A82B6AD0AA2B70D020234E
:1026D000052200F0D1FA677224E0BDE8F04100F075
:1026E000F6BABDE8F04100F087BABDE8F041FFF767
:1026F00087BF04F5004393F862C0BCF1010F06D117
:1027000092F804C00CF0030CBCF1020F57D0117901
:1027100001F0030001280BD0022806D0C84380072F
:1027200006D007E03046BDE8F08183F8627001E032
:1027300083F862502846E560F5E7107928B148F241
:10274000620001210155E5600CE048F26200055588
:10275000F9E7127917212046172A00D811460A46B0
:102760001E4909E02846DEE7127A1B2120461B2A73
:1027700000D811460A461A4900F0D5FAF2E703E0FC
:10278000BDE8F04100F0F8B9BDE8F04100F066B9ED
:10279000BDE8F04100F09CB9BDE8F04100F0B5B8EB
:1027A000BDE8F04100F003B9BDE8F04100F0CBBA5C
:1027B000BDE8F04100F025BB5278920704D52423F0
:1027C000052200F059FAADE704F16C0202F500426F
:1027D0000CCAFFF701FF0028ACDAA3E7A0C0012074
:1027E000500000202DE9F047D0F8BC62074606F5FE
:1027F00000448946B4F86400256F4FF0FF38454324
:10280000CEB14FF400418D4200D30D46B5FBF0F040
:1028100083B2D7F8C00206F11001E26ED0F810C002
:102820008A464846E047002808DA11230422494630
:10283000384600F021FA4046BDE8F0872B46524664
:102840008121384601F027F8B4F86400E26EB5FB48
:10285000F0F1B5FBF0F01144E166216F081A206732
:10286000A16BA1EB0501A16301D10320307200200F
:10287000E2E72DE9F0478946D0F8BC12074601F59A
:1028800000444FF0FF38B4F86400266F4643C1B1EE
:102890004FF40045AE4200D32E46B6FBF0F083B2B3
:1028A000D7F8C0021031E26ED0F814C08A4648460C
:1028B000E047002808DA032304224946384600F09E
:1028C000DBF94046BDE8F087B4F86400E26EB6FB81
:1028D000F0F11144E166B6FBF0F1226F531A236761
:1028E000A16BA1EB0601A1630AD04343AB4200D325
:1028F0002B4652460121384600F020FF0020E1E738
:1029000000213846FFF77AFCF8E72DE9F047D0F8C8
:10291000BC521646074689464FF0FF386DB3287AF9
:1029200070BB05F50044207F000631D594F86200A5
:10293000022809D0D7F8C00281684846884748B1C4
:102940003A230222494601E03A230222384600F0A7
:1029500093F912E07088317940BA000440EA01220C
:10296000707949460243E266B6F8070043BA384632
:102970002367FFF731FE002803DA4046BDE8F08701
:102980000CE0B4F86410206F4843A169884203D07A
:102990002023617F0522D9E7022028724FF40040EE
:1029A000E86049463846BDE8F047FFF71BBF2DE910
:1029B000F047D0F8BC521646074689464FF0FF381C
:1029C00095B3287A98BB05F50044207F000636D5DC
:1029D00094F86200022809D0D7F8C00281684846FE
:1029E000884748B13A230222494601E03A230222AD
:1029F000384600F041F917E07088317940BA000498
:102A000040EA012270790243E266F088317A40BAE6
:102A1000000440EA0123707A49460343384623679D
:102A2000FFF7DAFD002803DA4046BDE8F0870CE046
:102A3000B4F86410206F4843A169884203D0202372
:102A4000617F0522D4E7022028724FF40040E8603D
:102A500049463846BDE8F047FFF7C4BE2DE9F041CE
:102A6000D0F8BC420F4605464FF0FF365CB1D5F8B2
:102A7000C002436848F264002218001D211838463D
:102A80009847F0B902E03046BDE8F08104F5004116
:102A900091F86200022814D0886E401E020E227443
:102AA000020C6274020AA274E07400202075607542
:102AB000B1F86400010AA175E0750820E06000200B
:102AC000E2E73A2302223946284600F0D5F8DAE751
:102AD0002DE9F041D0F8BC421546884606464FF035
:102AE000FF375CB1D6F8C002436848F26400221890
:102AF000001D211840469847A8B902E03846BDE8B5
:102B0000F08104F5004292F8620002280BD0688937
:102B1000297B40BA000440EA0120697B0843E06059
:102B2000002001460AE03A2302224146304600F0E6
:102B3000A3F8E3E72318401C1974C0B2E36883428A
:102B4000F8D8906E401E030E2375030C6375030ABC
:102B5000A375E07521766176B2F86400010AA1766A
:102B6000E0766889297B40BA000440EA0120697B4D
:102B70000843E0600020C2E72DE9FC41D0F8BC42E8
:102B80000F4605464FF0FF3644B1D5F8C0026A46FD
:102B900001A943683846984738BB02E03046BDE893
:102BA000FC8148F26200005D02281ED00020014630
:102BB0002218401C80B211740C28F9D30820E0744C
:102BC0000198401E020E2275020C6275020AA2755F
:102BD000E075022020766176BDF80000010AA1763A
:102BE000E0760C20E0600020D9E73A230222394643
:102BF000284600F041F8D1E770B5D0F8BC124FF08C
:102C0000FF3439B301F500439D692DB3002005461B
:102C10000C18401CC0B225741228F9D37020087417
:102C20000C20C87593F8600093F86140A0421BD057
:102C300001EBC004403404F50044401C26788E7437
:102C400026790E776479C0B24C7783F86000042847
:102C500008D009E0204670BD597F2023052200F0EE
:102C60000BF8F7E783F860501220C860107912283B
:102C700000D8C860002070BD10B5D0F8BC12002983
:102C800024D001F5004090F8614001EBC40404F544
:102C9000004484F8402090F8612001EBC20202F564
:102CA000004282F8443090F86130002201EBC30109
:102CB00001F5004181F8452090F86110491CC9B226
:102CC00080F86110042901D180F8612010BD2DE940
:102CD000F041D0F8BC42884605464FF0FF36E4B1DB
:102CE00004F50041886930B1497F20230522284638
:102CF000FFF7C2FF11E091F862000527022805D016
:102D0000D5F8C00281684046884748B13A2302227C
:102D100041462846FFF7B0FF27723046BDE8F081F4
:102D20000020E060FAE710B508B1C26007E04FF09C
:102D3000FF3010BD521E92B284188B5C2374002A9F
:102D4000F8D1002010BD2DE9F047D0F8BC5216464E
:102D5000074689464FF0FF38B5B3287A20B1384688
:102D6000BDE8F047FFF785BD05F50044A069A8B3AD
:102D7000207F000632D4D7F8C002816848468847D1
:102D800028B13A230AE03846FFF776FF1CE0D7F86F
:102D9000C002C1684846884718B127230222494625
:102DA000F1E77088317940BA000440EA0122707975
:102DB00049460243E266B6F8070043BA384623673D
:102DC000FFF70AFC002802DA4046BDE8F087B4F8B5
:102DD0006400236F4343A069984203D02023617F9E
:102DE0000522D0E74FF40040834200D30346012080
:102DF0002872014605F11002384600F09FFC0020C1
:102E0000E3E72DE9F047D0F8BC52164607468A465C
:102E10004FF0FF3965B3287A20B13846BDE8F04756
:102E2000FFF727BD05F50044A06910B1207F00061B
:102E300006D5617F202305223846FFF71DFF30E0CD
:102E4000D7F8C0028168504688474FF0050808B19E
:102E50003A2306E0D7F8C002C1685046884740B11F
:102E60002723022251463846FFF706FF85F80880DF
:102E700017E07088317940BA000440EA0122707985
:102E80000243E266F088317A40BA000440EA012346
:102E9000707A5146034338462367FFF79DFB0028AD
:102EA00002DA4846BDE8F087B4F86400236F434374
:102EB000A0699842BDD14FF40040834200D303463D
:102EC00001202872014605F11002384600F036FC58
:102ED0000020E7E738B504461248134B0068B0FB02
:102EE000F3F04FF47A73584300906068B0F5827F36
:102EF0000DD10B46009200228021204600F016F8EA
:102F000070B1606D40F020006065032038BD00980E
:102F100030B1401E009020688068C0430006F6D59E
:102F2000002038BD0C00002000366E012DE9F8436A
:102F30001E46914688460446089DFDF7D1FC401B7D
:102F4000351AFDF7CDFC074625480068C0F3CB30A5
:102F5000684338E0701C37D0FDF7C2FCC01BA842A4
:102F600003D215B1009860B32CE02068416821F0CD
:102F7000E00141606068B0F5827F0BD1A068B0F5D8
:102F8000004F02D0B0F5806F04D12068016821F0B5
:102F900040010160A06AB0F5005F09D120680168B6
:102FA00021F4005101602068016841F40051016082
:102FB000012084F85100002084F850000320BDE86F
:102FC000F8830025401E00902068816838EA0100DF
:102FD00004D000214945BDD10020F0E70121F9E7E7
:102FE0000C00002008B1032070474FF400701080DF
:102FF0004FF4C0400860002070470020704710B5B3
:1030000008B1032010BD04F0FBFE002010BD00003D
:1030100004490A7842F010020A70002800D0032008
:10302000704700006B000020002800D0032070478C
:1030300070B50C4609490D7845F002050D7008B1D0
:10304000032070BD4FF6FF7000EA43205102024694
:10305000204604F005FF002070BD00006B0000203A
:1030600070B50C4609490D7845F001050D7008B1A1
:10307000032070BD4FF6FF7000EA43205102024664
:10308000204604F079FF002070BD00006B00002096
:1030900070470178407841EA00207047FDF726BC70
:1030A0000248016841F470010160704788ED00E05A
:1030B00070B5044600680169E26821F4405111438B
:1030C00001612169A068E26908436169114308430D
:1030D0002168CA6849F20C639A430243CA602068B7
:1030E0004169A26921F4407111434161314920686D
:1030F000884202D03049884202D1FEF76BFA01E0E3
:10310000FEF758FAE2690023192164253226B2F548
:10311000004F626828D0A0FB0101930F9200FDF7D9
:1031200051F80146B0FBF5F06FF01802504301EB87
:10313000800006EB0010B0FBF5F000F0F002B1FBF0
:10314000F5F002EB0012B1FBF5F06FF018035843F5
:1031500001EB800006EB0010B0FBF5F000F00F0073
:1031600021681044886070BDA0FB010192185B418A
:10317000FDF728F80146B0FBF5F00201B1FBF5F0D0
:103180006FF01803584301EB800006EBC000B0FB62
:10319000F5F000F0F80002EB4002B1FBF5F0584307
:1031A00001EB800006EBC000B0FBF5F000F007007B
:1031B000D6E7000000100140001401402DE9F04165
:1031C000984617460E460446069D1DE0681C1BD017
:1031D0002DB1FDF785FBA0EB0800A84214D92068AB
:1031E000C16821F4D071C1602068416921F00101FA
:1031F0004161202084F83D0084F83E00002084F8DE
:103200003C000320BDE8F0812068006836EA000039
:1032100004D00020B842D9D00020F3E70120F9E71C
:1032200010B5D0F8B8220AB152689047002010BDFE
:10323000134610B50A46002100F080FA002010BDA8
:10324000134610B50A46002100F025FB002010BDF2
:1032500010B50446802100F003FB2046BDE8104075
:10326000002100F0FDBA10B50521C0F8941200232A
:103270001A46194600F062FA002010BD10B502236C
:10328000C0F8943282611346C2610A46002100F000
:1032900002FB002010BD10B50421C0F894120023D9
:1032A0001A46194600F0F7FA002010BD10B50A467C
:1032B000024903A000F0DFF8004810BDB8DE01208D
:1032C0004D534320436F6E666967000012200880EB
:1032D00000487047D8C0012010B50A46024903A033
:1032E00000F0C9F8004810BDB8DE01204D5343205E
:1032F000496E746572666163650000000420088091
:1033000000487047D4C0012010B50A46024903A006
:1033100000F0B1F8004810BDB8DE012053544D69EB
:1033200063726F656C656374726F6E6963730000BE
:1033300010B50A46024903A000F09DF8004810BDF0
:10334000B8DE012053544D3332204D617373205346
:10335000746F72616765000010B51A2008800A4812
:103360000168001D0468001D0068081809D00822C3
:103370000649FEF7A9FD0549042210312046FEF753
:10338000A3FD0248801E10BD107AFF1FEEC0012071
:10339000F8B504460020ADF8000048880D46010A43
:1033A00008295FD2DFE801F05E0409175E5E3C4544
:1033B000D4F8B412207C0A6819E0207C0226002888
:1033C000D4F8B80205D0C16A6846884701464670FD
:1033D00039E0816AF8E7C0B2062843D2DFE800F09E
:1033E000030A1014181CD4F8B402426805E06946B8
:1033F00090471CE0D4F8B402826892B3207CF6E7D0
:10340000D4F8B402C268F8E7D4F8B4020269F4E769
:10341000D4F8B4024269F0E7D4F8B4028269ECE768
:10342000207CF0B9D4F8B802416B68468847014661
:1034300009E0207CA8B9D4F8B802016B6846884737
:10344000014607204870EA888AB1BDF8000040B103
:10345000824200D90246ADF800202046FFF70EFF59
:10346000F8BDFFE729462046FFF7F2FEF8E72046C1
:10347000FFF711FFF4E770B5002300281ED00025E8
:10348000044602E06D1CEDB2641C2678002EF9D1D2
:10349000022404EB450414801278CA545B1C0322F6
:1034A000CA5400245B1C06E0CA545B1CDAB28C547C
:1034B000521CD3B2401C0278002AF5D170BD010025
:1034C0004FF0000004D0012901D0022901D00320CF
:1034D00070470120704778B10023C0F8B832C0F8B7
:1034E000C032C0F8CC3209B1C0F8B412012180F862
:1034F0009C12027000F0BAB80320704710B5D0F8E3
:10350000C402FDF717FBBDE81040FFF7D8BF10B5A8
:10351000D0F8C402FDF7E8FABDE81040FFF7CFBFCE
:1035200070B51646044621B194F89C02032841D098
:1035300048E0D4F8941204F114000025022932D195
:10354000D0E902318B4206D95A1A826031462046B0
:10355000FFF776FE0FE0994214D14068884211D3FC
:10356000D4F8981288420DD2002211462046FFF767
:1035700067FEC4F8985200231A461946204600F008
:10358000DDF810E094F89C02032805D1D4F8B802C5
:10359000C16809B1204688478021204600F060F9C3
:1035A0002046FFF760FE94F8A00201280AD184F8B3
:1035B000A05207E0D4F8B80242691AB120469047F9
:1035C000002800D1002070BD10B51346044621B17B
:1035D00094F89C02032823D02AE0D4F8941204F52E
:1035E000AA70032924D1D0E9021291420AD98A1A79
:1035F0008260C068824200D3024619462046FFF727
:1036000017FE15E094F89C02032805D1D4F8B802FF
:10361000016909B1204688472046FFF73CFE07E0D4
:10362000D4F8B80282691AB120469047002800D128
:10363000002010BD0020704710B5012180F89C12B9
:10364000D0F8B82212B1526801799047002010BD1D
:1036500010B5D0F8C402FDF79BFABDE81040FFF7A3
:103660002EBFD0F8C402FDF7ADBA000010B5017846
:1036700021BB13490222C1F80404C0F8C4124FF060
:10368000A0400860042048600020C1E90320C1E98F
:10369000062008624862C86208630846FDF76CFDB0
:1036A00080210748FDF7BDF9402200210448FDF7BD
:1036B000BCF9802201210248FDF7B7F9002010BDB6
:1036C000B0DA01200A0601F07F01D0F8C402C1EB94
:1036D000C10100EB810002D590F83E00704790F8E0
:1036E000FE01704710B5D0F8B82222B190F89C3294
:1036F000032B02D004E0032010BD126A02B19047F0
:10370000002010BD10B5D0F8B82222B190F89C323C
:10371000032B02D004E0032010BD526A02B190478F
:10372000002010BD10B51C461346D0F8C402224636
:10373000FDF751FABDE81040FFF7C1BE10B5D0F853
:10374000C402FDF778FABDE81040FFF7B8BE70B5C7
:103750000125044680F89C520020C4F89402606061
:10376000C4F8A402D4F8B802E0B1D4F8BC1221B174
:10377000426812B1002120469047002240231146A2
:103780002046FFF7CFFF4026A4F8645133460022BD
:1037900080212046C4F86061FFF7C4FFA5840020A3
:1037A000266270BD032070BD90F89C12042903D1DD
:1037B00090F89D1280F89C120020704710B5D0F848
:1037C000B81221B190F89C22032A02D004E0032011
:1037D00010BDC96901B18847002010BD01740020E7
:1037E00070470000054B10B501221A70D0F8C402D2
:1037F000FDF7D6FDBDE81040FFF761BEB7C0012060
:1038000070B5044600F2AA20054600F02EF901200A
:10381000C4F89402B4F8B002C4F8980294F8AA026A
:1038200010F01F010AD001290ED0022912D000F099
:1038300080012046BDE8704000F012B829462046BD
:10384000BDE8704000F0A4B929462046BDE87040AC
:1038500000F0C8BA29462046BDE8704000F022BA00
:1038600010B5D0F8C402FDF70AFABDE81040FFF722
:1038700026BE10B5D0F8C402FDF7ADFDBDE810407E
:10388000FFF71DBE90F89C1280F89D12042180F86D
:103890009C120020704710B5D0F8C402FDF729FA39
:1038A000BDE81040FFF70BBE10B5FEF71BFC002073
:1038B00010BD10B5FEF736FC002010BD70B50446F3
:1038C0000121FFF724FE0025A4F87851812120462C
:1038D000FFF71DFE2587D4F8BC0248B12046FEF74D
:1038E00041FC0020D4F8BC1204F050FAC4F8BC52D9
:1038F000002070BD0A2101800048704790C001205F
:10390000202101800048704750C001202021018003
:103910000048704730C001202021018000487047D6
:1039200070C0012070B5044648F27401002004F014
:1039300039FAC0B1C4F8BC02207C0125C0B14023D3
:10394000022201212046FFF7EDFEA4F87851402322
:10395000022281212046FFF7E5FE25872046FEF75B
:1039600008FC002070BD0020C4F8BC02022070BD1D
:103970004FF400763346022201212046FFF7D2FEA3
:10398000A4F878513346E3E719B1C0F8C01200201B
:10399000704703207047F8B50025D0F8BC720C467C
:1039A0000646ADF8005037B1207810F0600123D002
:1039B000202940D101E00320F8BD6178FE2902D022
:1039C000FF2938D10EE0618881BBE188012932D11D
:1039D000000630D5D6F8C0028069804701223946FA
:1039E00038601FE0618809BBE188F9B9000622D47C
:1039F0003046FEF7E6FB23E0607830B1012824D0A2
:103A00000A2809D00B2816D111E096F89C02032849
:103A100011D10222694605E096F89C0203280AD1DA
:103A20000122391D3046FFF729FC09E003E096F832
:103A30009C02032806D021463046FFF709FC0325E7
:103A40002846F8BDA0787860FAE796F89C0203282B
:103A5000F6D160880028F3D121793046FFF7F8FDD0
:103A600021793046FEF720FBEAE770B5054611F8EC
:103A7000010B2870087868704C1C2046FFF709FB82
:103A80006880A41C2046FFF704FBA880A01CFFF759
:103A900000FBE88070BD38B504460020ADF800009A
:103AA00049B1C4F8B812C96A19B168468847C4F860
:103AB000CC02002038BD032038BD02460320D2F8D6
:103AC000B832002B02D01B68104618477047000020
:103AD0002DE9F0410F462C4E8978002504463170BF
:103AE000012906D939462046FFF7B2FB0320BDE87D
:103AF000F08194F89C0202280CD003281DD039468E
:103B00002046FFF7A5FB31782046FFF789FB032508
:103B10002846ECE799B320466160FFF7CEFF050029
:103B200004D039462046FFF793FBF1E72046FFF724
:103B3000B2FB032084F89C02EAE74FF00208C1B10F
:103B4000606888421BD0C1B22046FFF769FB31781C
:103B500020466160FFF7B1FF050010D039462046CE
:103B6000FFF776FB21792046FFF75AFB84F89C8209
:103B7000CEE784F89C8220466160FFF751FB204627
:103B8000FFF789FBC4E700002CC00120FFF771BEDE
:103B90002DE9F0410A78002512F0600208D0202AB1
:103BA00001D0402A71D1D0F8B8229268904731E014
:103BB0004B78002201260A2B67D2DFE803F0415E32
:103BC0006658660805662D29FFF7E2FB5FE00446AC
:103BD0008888D8B9C888C8B94888802816D200F023
:103BE0007F0794F89C02032810D084F89E7239460F
:103BF0002046FFF7F7FD2046FFF74DFB1FB10220DF
:103C000084F89C0243E084F89C6240E020463CE05B
:103C1000FFF75EFF05463AE0CB88012B35D190F8DF
:103C20009C32012B04D0022B02D0032B2DD104E0B7
:103C30008260012200F1080116E00122011D13E05B
:103C400090F89C22012A03D0022A01D0032A1CD119
:103C5000CA88022A19D1C660D0F8A41209B103217A
:103C6000C160022200F10C01FFF708FB0FE0498858
:103C700001290CD1C0F8A46211E090F89C32012B0C
:103C800008D0022B06D0032B04D0FFF7E1FA284618
:103C9000BDE8F08149880129F9D1C0F8A422FFF7D5
:103CA000FAFAF4E72DE9F0410D460446287800269B
:103CB000097910F060000BD0202801D040286DD188
:103CC000D4F8B8022946826820469047064686E026
:103CD0006878A8B3012822D003287CD194F89C02EC
:103CE000022802D0032876D10BE0002973D0802966
:103CF00071D02046FFF7B4FD80212046FFF7B0FDCC
:103D00006DE0688838B931B1802904D0E88810B9ED
:103D10002046FFF7A5FD2046FFF7BDFA5FE094F8C7
:103D20009C020228E1D0032855D16888A8BB480628
:103D300002D02046FFF7E2FB2046FFF7ACFABFE7D0
:103D4000FFE794F89C020027022802D0032842D102
:103D500011E009B180293ED1080601F07F0000EB97
:103D6000800004EB800101D5143101E001F5AA7156
:103D700002220F602BE0080601F00F0000EB80002C
:103D800004EB80000BD5808C40B101F07F0000EB8C
:103D9000800004EB800514350CE020E01BE0B0F857
:103DA0006401C0B101F07F0000EB800004EB8005EE
:103DB00005F5AA7541B1802906D02046FFF782FC9F
:103DC00010B10120286000E02F6002222946204621
:103DD000FFF754FA03E029462046FFF739FA304648
:103DE000BDE8F08170B50646087800240D4610F055
:103DF000600003D0202801D0402817D196F89C02FB
:103E0000012803D0022801D003280FD128790128E6
:103E10000CD8D6F8B8028268304690470446E88845
:103E2000204306D13046FFF736FA02E03046FFF76E
:103E30000FFA204670BD000070B50A78012302F029
:103E40000F054E78AB401B4CD0F81C58012E17D0F4
:103E500045EA0343C0F81C3800EB4210D0F8002BB1
:103E600012040BD4D0F8002B0B89C978C3F30A03D2
:103E70001A4344EA81410A43C0F8002B002070BD78
:103E80009BB21D43C0F81C5800EB4210D0F800391B
:103E90001B04F3D4D0F800390D89C978C5F30A059D
:103EA00089042B4341EA82510B432343C0F8003974
:103EB000E4E7000000800010D0F800196FF30A0159
:103EC000C0F80019D0F8041841F48071C0F8041843
:103ED0000020704770B5044606990A9E049D0D980F
:103EE000012916D0E06840F04000E060204600F074
:103EF0002BF8A16B1EB321F48031A163012D07D1F2
:103F0000A16841F00601A160A16841F02001A16013
:103F100070BDA16B21F48031A163E168094A1140B1
:103F2000E160E16821F44011E160012803D1E0681B
:103F300040F48010E060204600F006F8DEE741F42F
:103F40008031DAE7BFFFBDFF01220C4902E0521CBD
:103F50008A420BD80369002BF9DA026942F00102A8
:103F60000261012204E0521C8A4201D903207047F9
:103F70000369DB07F7D1002070470000400D030004
:103F800030B54C780A78012300EB4212012C2CD07A
:103F9000D2F8004B002C0BDAD2F8004B44F000644E
:103FA000C2F8004BD2F8004B44F08044C2F8004BFA
:103FB000D0F83C580C7804F00F0403FA04F425EA16
:103FC0000444C0F83C48D0F81C48097801F00F01BF
:103FD0008B4024EA0341C0F81C18D2F8000B1949A1
:103FE0000840C2F8000B002030BDD2F80049002C78
:103FF0000BDAD2F8004944F00064C2F80049D2F864
:10400000004944F08044C2F80049D0F83C480D789B
:1040100005F00F0503FA05F5ADB2AC43C0F83C4816
:10402000D0F81C48097801F00F018B4099B28C43FD
:10403000C0F81C48D2F8000903490840C2F800093A
:10404000D1E700000078F3EF007833ECD0F8001EE1
:1040500021F00301C0F8001ED0F8041821F002017D
:10406000C0F8041800207047D0F8001E21F00301AA
:10407000C0F8001ED0F8041841F00201C0F804187E
:10408000002070472DE9F04F00250E460446DDF86C
:104090002CC0DDF824B0109F2846294604EB80028E
:1040A000C2F80411401C0F28F8D32046C7B1806B1A
:1040B00020F40012A263A06B40F40022A263084621
:1040C0008846C4F8000ED4F800182046C4F800183A
:1040D000BCF1010F16D0D0F8001841F0030116E032
:1040E000D0F8040840F00202C4F80428A06B40F4A1
:1040F0000012A263A06B20F40022A263A06B20F444
:104100008022DBE7D0F800180BB141F00101C0F8C4
:104110000018102100F090FA00B10125204600F0AF
:104120007BFA00B101254046C4F81088C4F8148811
:10413000C4F81C8800214FF000694FF0904A4FF6F8
:104140007F3314E004EB4112D2F800C9BCF1000F38
:1041500006DA11B1C2F800A904E0C4F8009901E040
:10416000C2F80009C2F81009C2F80839491C8E4289
:10417000E8D8002115E000BF04EB4112D2F800CBD3
:10418000BCF1000F06DA11B1C2F800AB04E0C4F8CC
:10419000009B01E0C2F8000BC2F8100BC2F8083B0C
:1041A000491C8E42E8D8D4F8101821F48072C4F863
:1041B0001028A0616FF080406061BBF1000F03D157
:1041C000A06940F01000A061A06909490843A061FE
:1041D0000C9818B1A06940F00800A061012F03D12C
:1041E000A06904490843A0612846BDE8F08F00009B
:1041F00000383C8004000040816821F001018160AA
:104200000020704770B50D784E78434CEBB200EB50
:104210004313012E1FD0D3F8100B6FF31200C3F815
:10422000100BD3F8100B2040C3F8100B486908B1ED
:1042300088684861D3F8100B40F40020C3F8100BD5
:10424000D3F8100B8C68C4F312042043C3F8100B8E
:10425000012A55D058E04E69002ED3F8106932D0AB
:104260006FF31206C3F81069D3F810692640C3F83B
:1042700010694E698C68A64200D94C61D3F8104988
:1042800044F40024C3F81049D3F810494E69C6F32A
:1042900012063443C3F81049012A22D000EB45121C
:1042A000D2F8003943F00443C2F800394A6932B306
:1042B000D0F83428097801F00F03012199400A430E
:1042C000C0F8342826E02640C3F81069D3F8104916
:1042D00044F40024C3F81049D3F810496FF31204D2
:1042E000D8E7096919B100EB4512C2F8141900EBBF
:1042F0004510D0F8001941F00441C0F8001909E058
:10430000C86808B1C3F8140BD3F8000B40F00440A0
:10431000C3F8000B002070BDFFFF07E010B5036C71
:10432000134CA34203D9D0F8003B002B1EDB002323
:10433000C0F8103BD0F8103B43F40023C0F8103B0A
:10434000D0F8103B43F01803C0F8103BD0F8103BF6
:1043500043F0C043C0F8103B012907D1C0F8142B2B
:10436000D0F8001B41F08021C0F8001B002010BDD8
:104370000A30544F4A780B78012A00EB43100BD0D7
:10438000D0F8002B22F40012C0F8002BC9780329C2
:1043900014D0022912D017E0D0F8002922F400121C
:1043A000C0F80029C978032901D002290CD1D0F81E
:1043B000001941F08051C0F8001905E0D0F8001B49
:1043C00041F08051C0F8001B002070470A784B78FC
:1043D000D1B200EB4110012B12D0D0F8001B002904
:1043E00006DB2AB1D0F8001B21F08041C0F8001B89
:1043F000D0F8001B41F40011C0F8001B00207047EA
:10440000D0F80019002906DB2AB1D0F8001921F0F4
:104410008041C0F80019D0F8001941F40011C0F82B
:104420000019EBE7F8B50C784F78774DE3B26FF0F1
:10443000604600EB4313012F26D0D3F8104B6FF3E7
:104440001204C3F8104BD3F8104B2C40C3F8104B98
:104450004C69002C74D08D682C44641EB4FBF5F4B8
:10446000D3F8105BA4B206EAC4463543C3F8105B28
:10447000D3F8105B8E686643C6F312042543C3F875
:10448000105B012A71D0A6E04F691FB3D3F81079F1
:104490006FF31207C3F81079D3F810792F40C3F8DF
:1044A00010794F698D682F447F1EB7FBF5F506EA3A
:1044B000C545D3F810693543C3F81059D3F81059DE
:1044C0004E69C6F312063543C3F81059CD78012D55
:1044D00010D01BE0D3F810692E40C3F81069D3F850
:1044E000105945F40025C3F81059D3F810596FF34B
:1044F000120509E0D3F8105925F0C045C3F810594A
:10450000D3F8105945F00055C3F81059012A18D0B6
:1045100000EB4413D3F8004944F00444C3F80049C5
:10452000CC78012C2FD04A6962B3D0F834280978AE
:1045300001F00F03012199400A43C0F8342860E0DC
:1045400036E00A691AB100EB4413C3F81429C9789C
:1045500001290FD1D0F80818C90500EB4411D1F892
:10456000002903D442F0005202E030E042F08052D1
:10457000C1F8002900EB4410D0F8001941F00441C3
:10458000C0F800193DE0D0F80848E405D3F8004928
:1045900002D444F0005401E044F08054C3F80049D0
:1045A00000928A8A93B20A78C96800F03FF928E03D
:1045B000D3F8104B8D68C5F312052C43C3F8104B8C
:1045C000D3F8104B44F40024C3F8104B59E7CA68E1
:1045D0000AB1C3F8142BC97801290CD1D0F8080806
:1045E000C005D3F8000B02D440F0005001E040F0C9
:1045F0008050C3F8000BD3F8000B40F00440C3F820
:10460000000B0020F8BD0000FFFF07E0816841F0CB
:104610000101816000207047002110220261054ADB
:10462000491C914201D9032070470369DB06F7D486
:1046300000207047400D03000022202343EA81112F
:1046400001610549521C8A4201D903207047036960
:104650009B06F7D400207047400D0300D0F80808EF
:1046600010F0060004D0022803D0062801D00F2045
:10467000704702207047406900F001007047D0F891
:104680001818D0F81C08084080B27047D0F81818E5
:10469000D0F81C080840000C704710B5D0F810384E
:1046A000D0F8342801F00F0400EB4110E24002F092
:1046B0000102D0F8080943EAC212104010BD00EB15
:1046C0004111D1F8081BD0F814080840704741691F
:1046D000806908407047D21C10B59308002200F58D
:1046E000805002E00468521C10C19A42FAD3084676
:1046F00010BD10B5C26822F0C042C260012902D0CC
:1047000029B1012010BDC16841F0005102E0C1682B
:1047100041F08041C1603220FBF780FF002010BDD6
:10472000D0F8002822F4FE62C0F80028D0F8002853
:104730004FF4FE6303EA01110A43C0F80028002089
:1047400070470000022A3ED1264A274B0A449A426B
:1047500001D20F2138E0254A254B0A449A4201D262
:104760000E2131E0234A244B0A449A4201D20D2102
:104770002AE0224A224B0A449A4201D20C2123E029
:10478000204A214B0A449A4201D20B211CE01F4AC5
:104790001F4B0A449A4201D20A2115E01D4A1E4BC2
:1047A0000A449A420FD31D4A1D4B0A449A4201D231
:1047B000082109E01B4A11441B4A914201D20721FA
:1047C00002E0062100E00921C26822F47052C260B2
:1047D000C2684FF4705303EA81210A43C26000208B
:1047E00070470000405327FF00350C00401E1BFFA0
:1047F00040420F0000DC0BFF804F1200808CF9FE5E
:1048000020D6130060B6E5FE60E3160000D3CEFEAE
:1048100040771B00C05BB3FEC091210000CA91FE2F
:1048200020753800E05459FEE09C410010B5029C10
:1048300064B9DB1C9C0800EB0230002300F58050BB
:1048400002E004C902605B1CA342FAD3002010BD41
:10485000FEE70000014A024900F023B8F1480008D1
:104860008C0000200907090E002804DB00F1E0207D
:1048700080F80014704700F00F0000F1E02080F88D
:10488000141D704702E008C8121F08C1002AFAD19F
:1048900070477047002001E001C1121F002AFBD1C0
:1048A00070472DE9F04116460F460446002503E007
:1048B0003946B047641C6D1C20780028F8D1284682
:1048C000BDE8F081074A10B553680749074C0968ED
:1048D000B1FBF4F1414300E000BF5068C01A8842C8
:1048E000FAD310BD001000E00C00002040420F0081
:1048F00013B54FF6FF73012269460248FDF78AFAA5
:1049000000981CBD6003002070B5094906460024CC
:1049100008884D8821464543204602F0ABFE02F050
:10492000FDFF044801E00680641CAC42FBD370BD6F
:10493000A40300200008006C2DE9F04F38492C2614
:104940000A46887192884FF4305A4FF4285B41F63A
:10495000631E2B274FF02A0C4FF0F00845F2105938
:104960004FF448754FF4A0744FF4F07358B10C80B5
:10497000A1F802804A4530D1A1F808A0A1F80AB0F8
:104980003802888141E0A1F800804C804A4507D177
:10499000A1F808A0A1F80AB04FF42C50888105E0D6
:1049A00072450E8105D14F81A1F80CC00B804D805E
:1049B00002E0A1F80AC08F81A2F5A640103803D00A
:1049C000A2F5EE40963801D10C804B80A2F518403C
:1049D00006381FD10B804D801CE0724511D0A2F526
:1049E000184006380DD00E81A1F80AC0A1F80C704D
:1049F000A2F5A64010380BD0A2F5EE40963807D0AD
:104A000008E00E81A1F80AC08F810D804B80EFE78E
:104A10000B804C80BDE8F04F002002F069BD000023
:104A2000A403002010B5144602F024FE02F076FF25
:104A30000148048010BD00000008006C10B5CF20B4
:104A400002F060FF002002F051FFC12002F04EFF93
:104A5000302002F04BFFED2002F054FF642002F002
:104A600045FF032002F042FF122002F03FFF8120A9
:104A700002F03CFFE82002F045FF852002F036FFFF
:104A8000102002F033FF7A2002F030FFCB2002F03A
:104A900039FF392002F02AFF2C2002F027FF0020E6
:104AA00002F024FF342002F021FF022002F01EFF5A
:104AB000F72002F027FF202002F018FFEA2002F082
:104AC00021FF002002F012FF002002F00FFFC020A3
:104AD00002F018FF1B2002F009FFC12002F012FFB4
:104AE000012002F003FFC52002F00CFF302002F08D
:104AF000FDFE302002F0FAFEC72002F003FFB720CF
:104B000002F0F4FE362002F0FDFE482002F0EEFE38
:104B10003A2002F0F7FE552002F0E8FEB12002F044
:104B2000F1FE002002F0E2FE1A2002F0DFFEB620C5
:104B300002F0E8FE0A2002F0D9FEA22002F0D6FE22
:104B4000F22002F0DFFE002002F0D0FE262002F06C
:104B5000D9FE012002F0CAFEE02002F0D3FE0F20B1
:104B600002F0C4FE2A2002F0C1FE282002F0BEFEA0
:104B7000082002F0BBFE0E2002F0B8FE082002F072
:104B8000B5FE542002F0B2FEA92002F0AFFE432091
:104B900002F0ACFE0A2002F0A9FE0F2002F0A6FEF1
:104BA000002002F0A3FE002002F0A0FE002002F090
:104BB0009DFE002002F09AFEE12002F0A3FE0020FC
:104BC00002F094FE152002F091FE172002F08EFEF6
:104BD000072002F08BFE112002F088FE062002F072
:104BE00085FE2B2002F082FE562002F07FFE3C2044
:104BF00002F07CFE052002F079FE102002F076FE25
:104C00000F2002F073FE3F2002F070FE3F2002F002
:104C10006DFE0F2002F06AFE2B2002F073FE0020D2
:104C200002F064FE002002F061FE012002F05EFE50
:104C30003F2002F05BFE2A2002F064FE002002F01A
:104C400055FE002002F052FE002002F04FFEEF2041
:104C500002F04CFE112002F055FE7820FBF7DEFC3E
:104C6000BDE81040292002F04DBE10B5FF2002F033
:104C700049FEFF2002F03AFE982002F037FE06209F
:104C800002F034FEBC2002F03DFE012002F02EFEB8
:104C90000F2002F02BFE612002F028FEFF2002F020
:104CA00025FE012002F022FE012002F01FFE0B2053
:104CB00002F01CFE102002F019FE372002F016FE52
:104CC000632002F013FEFF2002F010FEFF2002F02E
:104CD0000DFE012002F00AFE012002F007FE002076
:104CE00002F004FE002002F001FEFF2002F0FEFDB3
:104CF000522002F0FBFD012002F0F8FD002002F03E
:104D0000F5FD402002F0F2FDBD2002F0FBFD012088
:104D100002F0ECFD232002F0E9FD452002F0E6FD63
:104D2000672002F0E3FD012002F0E0FD232002F005
:104D3000DDFD452002F0DAFD672002F0D7FDBE2040
:104D400002F0E0FD002002F0D1FD012002F0CEFDD6
:104D5000AB2002F0CBFD602002F0C8FD222002F063
:104D6000C5FD222002F0C2FD222002F0BFFD22205C
:104D700002F0BCFD222002F0B9FDC72002F0C2FD06
:104D8000362002F0B3FDED2002F0BCFD7F2002F0E2
:104D9000ADFD0F2002F0AAFDC02002F0B3FD0F20F0
:104DA00002F0A4FD0B2002F0A1FD0A2002F09EFDFE
:104DB000FC2002F0A7FD082002F098FDDF2002F0A1
:104DC000A1FD002002F092FD002002F08FFD0020E6
:104DD00002F08CFD002002F089FD002002F086FD2B
:104DE000202002F083FDF32002F08CFD742002F0FD
:104DF0007DFDB42002F086FD002002F077FD00204A
:104E000002F074FD002002F071FDF72002F07AFD3F
:104E1000822002F06BFDB12002F074FD002002F050
:104E200065FD132002F062FD132002F05FFDF22009
:104E300002F068FD802002F059FD042002F056FDCA
:104E4000402002F053FD282002F050FDC12002F066
:104E500059FD172002F04AFD882002F047FD882006
:104E600002F044FD202002F041FDE02002F04AFD66
:104E7000002002F03BFD0A2002F038FD122002F073
:104E800035FD102002F032FD0E2002F02FFD202013
:104E900002F02CFDCC2002F029FD072002F026FDB7
:104EA000062002F023FD0B2002F020FD0E2002F070
:104EB0001DFD0F2002F01AFD0D2002F017FD152038
:104EC00002F014FD102002F011FD002002F00EFD92
:104ED000E12002F017FD002002F008FD0B2002F097
:104EE00005FD132002F002FD0D2002F0FFFC0E2054
:104EF00002F0FCFC1B2002F0F9FC712002F0F6FC31
:104F0000062002F0F3FC062002F0F0FC0A2002F07A
:104F1000EDFC0F2002F0EAFC0E2002F0E7FC0F206F
:104F200002F0E4FC152002F0E1FC0C2002F0DEFCB3
:104F3000002002F0DBFC2A2002F0E4FC002002F05A
:104F4000D5FC002002F0D2FC012002F0CFFCDF20D3
:104F500002F0CCFC2B2002F0D5FC002002F0C6FCB5
:104F6000002002F0C3FC032002F0C0FC1F2002F06E
:104F7000BDFC3A2002F0C6FC552002F0B7FC3620FA
:104F800002F0C0FC002002F0B1FC112002F0BAFCDB
:104F90007820FBF743FB292002F0B4FC1420FBF738
:104FA0003DFBBDE810402C2002F0ACBC10B5ED205C
:104FB00002F0A8FC012002F099FCFE2002F096FC11
:104FC000EE2002F09FFCDE2002F090FC212002F097
:104FD0008DFCF12002F096FC012002F087FCDF201E
:104FE00002F090FC102002F081FCC42002F08AFC48
:104FF0008F2002F07BFCC62002F084FC002002F02F
:1050000075FCE22002F072FCE22002F06FFCE2206C
:1050100002F06CFCBF2002F075FCAA2002F066FCD6
:10502000B02002F06FFC0D2002F060FC002002F0C6
:105030005DFC0D2002F05AFC002002F057FC11200C
:1050400002F054FC002002F051FC192002F04EFC4A
:10505000002002F04BFC212002F048FC002002F06E
:1050600045FC2D2002F042FC002002F03FFC3D20D8
:1050700002F03CFC002002F039FC5D2002F036FC1E
:10508000002002F033FC5D2002F030FC002002F032
:105090002DFCB12002F036FC802002F027FC00201D
:1050A00002F024FC8B2002F021FC002002F01EFC08
:1050B000962002F01BFC002002F018FCB22002F047
:1050C00021FC002002F012FC002002F00FFC022064
:1050D00002F00CFC002002F009FC032002F006FCA8
:1050E000002002F003FCB32002F00CFC002002F0D0
:1050F000FDFB002002F0FAFB002002F0F7FB00208D
:1051000002F0F4FB002002F0F1FB002002F0EEFBC5
:10511000002002F0EBFB002002F0E8FB002002F090
:10512000E5FB002002F0E2FB002002F0DFFB0020A4
:1051300002F0DCFB002002F0D9FB002002F0D6FBDD
:10514000002002F0D3FB002002F0D0FB002002F090
:10515000CDFB002002F0CAFB002002F0C7FB0020BC
:1051600002F0C4FB002002F0C1FB002002F0BEFBF5
:10517000002002F0BBFB002002F0B8FBB42002F0DC
:10518000C1FB8B2002F0B2FB002002F0AFFB9620A7
:1051900002F0ACFB002002F0A9FBA12002F0A6FB6C
:1051A000002002F0A3FBB52002F0ACFB022002F0CD
:1051B0009DFB002002F09AFB032002F097FB0020E9
:1051C00002F094FB042002F091FB002002F08EFB21
:1051D000B62002F097FB002002F088FB002002F0CE
:1051E00085FBB72002F08EFB002002F07FFB002041
:1051F00002F07CFB3F2002F079FB002002F076FBFE
:105200005E2002F073FB002002F070FB642002F0CD
:105210006DFB002002F06AFB8C2002F067FB00208F
:1052200002F064FBAC2002F061FB002002F05EFBA8
:10523000DC2002F05BFB002002F058FB702002F043
:1052400055FB002002F052FB902002F04FFB0020A3
:1052500002F04CFBEB2002F049FB002002F046FB81
:10526000DC2002F043FB002002F040FBB82002F0FB
:1052700049FB002002F03AFB002002F037FB00203F
:1052800002F034FB002002F031FB002002F02EFB84
:10529000002002F02BFB002002F028FB002002F08F
:1052A00025FBBA2002F02EFB242002F01FFB002079
:1052B00002F01CFB002002F019FB002002F016FB9C
:1052C000C12002F01FFB202002F010FB002002F0A2
:1052D0000DFB542002F00AFB002002F007FBFF2028
:1052E00002F004FB002002F001FBC22002F00AFBE6
:1052F0000A2002F0FBFA002002F0F8FA042002F083
:10530000F5FA002002F0F2FAC32002F0FBFA3C208A
:1053100002F0ECFA002002F0E9FA3A2002F0E6FA94
:10532000002002F0E3FA392002F0E0FA002002F057
:10533000DDFA372002F0DAFA002002F0D7FA3C203A
:1053400002F0D4FA002002F0D1FA362002F0CEFAB0
:10535000002002F0CBFA322002F0C8FA002002F05E
:10536000C5FA2F2002F0C2FA002002F0BFFA2C206A
:1053700002F0BCFA002002F0B9FA292002F0B6FAD5
:10538000002002F0B3FA262002F0B0FA002002F06A
:10539000ADFA242002F0AAFA002002F0A7FA242095
:1053A00002F0A4FA002002F0A1FA232002F09EFAF3
:1053B000002002F09BFA3C2002F098FA002002F054
:1053C00095FA362002F092FA002002F08FFA32208D
:1053D00002F08CFA002002F089FA2F2002F086FAFF
:1053E000002002F083FA2C2002F080FA002002F064
:1053F0007DFA292002F07AFA002002F077FA2620BE
:1054000002F074FA002002F071FA242002F06EFA21
:10541000002002F06BFA242002F068FA002002F06B
:1054200065FA232002F062FA002002F05FFAC4203D
:1054300002F068FA622002F059FA002002F056FAEF
:10544000052002F053FA002002F050FA842002F006
:105450004DFA002002F04AFAF02002F047FA00204C
:1054600002F044FA182002F041FA002002F03EFA5D
:10547000A42002F03BFA002002F038FA182002F0D3
:1054800035FA002002F032FA502002F02FFA002004
:1054900002F02CFA0C2002F029FA002002F026FA81
:1054A000172002F023FA002002F020FA952002F0E3
:1054B0001DFA002002F01AFAF32002F017FA002079
:1054C00002F014FAE62002F011FA002002F00EFABF
:1054D000C52002F017FA322002F008FA002002F08C
:1054E00005FA442002F002FA002002F0FFF96520DC
:1054F00002F0FCF9002002F0F9F9762002F0F6F94A
:10550000002002F0F3F9882002F0F0F9002002F008
:10551000EDF9C62002F0F6F9202002F0E7F90020AC
:1055200002F0E4F9172002F0E1F9002002F0DEF9C0
:10553000012002F0DBF9002002F0D8F9C72002F0C8
:10554000E1F9002002F0D2F9002002F0CFF90020AA
:1055500002F0CCF9002002F0C9F9C82002F0D2F91B
:10556000002002F0C3F9002002F0C0F9002002F090
:10557000BDF9002002F0BAF9C92002F0C3F90020F9
:1055800002F0B4F9002002F0B1F9002002F0AEF907
:10559000002002F0ABF9002002F0A8F9002002F090
:1055A000A5F9002002F0A2F9002002F09FF90020E6
:1055B00002F09CF9002002F099F9002002F096F91F
:1055C000002002F093F9002002F090F9002002F090
:1055D0008DF9002002F08AF9002002F087F9E0201E
:1055E00002F090F9162002F081F9002002F07EF915
:1055F0001C2002F07BF9002002F078F9212002F053
:1056000075F9002002F072F9362002F06FF90020DF
:1056100002F06CF9462002F069F9002002F066F908
:10562000522002F063F9002002F060F9642002F0D9
:105630005DF9002002F05AF97A2002F057F90020B3
:1056400002F054F98B2002F051F9002002F04EF9DB
:10565000992002F04BF9002002F048F9A82002F04E
:1056600045F9002002F042F9B92002F03FF900208C
:1056700002F03CF9C42002F039F9002002F036F9BA
:10568000CA2002F033F9002002F030F9D22002F0F3
:105690002DF9002002F02AF9D92002F027F9002084
:1056A00002F024F9E02002F021F9002002F01EF9B6
:1056B000F32002F01BF9002002F018F9E12002F0BB
:1056C00021F9162002F012F9002002F00FF91C2037
:1056D00002F00CF9002002F009F9222002F006F98C
:1056E000002002F003F9362002F000F9002002F059
:1056F000FDF8452002F0FAF8002002F0F7F85220F9
:1057000002F0F4F8002002F0F1F8642002F0EEF864
:10571000002002F0EBF87A2002F0E8F8002002F016
:10572000E5F88B2002F0E2F8002002F0DFF8992083
:1057300002F0DCF8002002F0D9F8A82002F0D6F838
:10574000002002F0D3F8B92002F0D0F8002002F0D7
:10575000CDF8C42002F0CAF8002002F0C7F8CA2031
:1057600002F0C4F8002002F0C1F8D22002F0BEF826
:10577000002002F0BBF8D82002F0B8F8002002F0B8
:10578000B5F8E02002F0B2F8002002F0AFF8F32004
:1057900002F0ACF8002002F0A9F8E22002F0B2F822
:1057A000052002F0A3F8002002F0A0F80B2002F080
:1057B0009DF8002002F09AF81B2002F097F80020D4
:1057C00002F094F8342002F091F8002002F08EF8F4
:1057D000442002F08BF8002002F088F84F2002F0FD
:1057E00085F8002002F082F8612002F07FF80020A6
:1057F00002F07CF8792002F079F8002002F076F8C7
:10580000882002F073F8002002F070F8972002F070
:105810006DF8002002F06AF8A62002F067F8002078
:1058200002F064F8B72002F061F8002002F05EF8A0
:10583000C22002F05BF8002002F058F8C72002F006
:1058400055F8002002F052F8D12002F04FF8002065
:1058500002F04CF8D62002F049F8002002F046F899
:10586000DD2002F043F8002002F040F8F32002F0BF
:105870003DF8002002F03AF8E32002F043F805205A
:1058800002F034F8002002F031F80A2002F02EF87D
:10589000002002F02BF81C2002F028F8002002F073
:1058A00025F8332002F022F8002002F01FF84420EF
:1058B00002F01CF8002002F019F8502002F016F84F
:1058C000002002F013F8622002F010F8002002F02D
:1058D0000DF8782002F00AF8002002F007F888207E
:1058E00002F004F8002002F001F8972001F0FEFF1A
:1058F000002001F0FBFFA62001F0F8FF002001F0DE
:10590000F5FFB72001F0F2FF002001F0EFFFC22009
:1059100001F0ECFF002001F0E9FFC72001F0E6FFF5
:10592000002001F0E3FFD12001F0E0FF002001F0B2
:10593000DDFFD52001F0DAFF002001F0D7FFDD20E8
:1059400001F0D4FF002001F0D1FFF32001F0CEFFE1
:10595000002001F0CBFFE42001F0D4FF012001F092
:10596000C5FF002001F0C2FF012001F0BFFF0020B1
:1059700001F0BCFF022001F0B9FF002001F0B6FFEA
:105980002A2001F0B3FF002001F0B0FF3C2001F01D
:10599000ADFF002001F0AAFF4B2001F0A7FF00207F
:1059A00001F0A4FF5D2001F0A1FF002001F09EFFA7
:1059B000742001F09BFF002001F098FF842001F08B
:1059C00095FF002001F092FF932001F08FFF00204F
:1059D00001F08CFFA22001F089FF002001F086FF7A
:1059E000B32001F083FF002001F080FFBE2001F012
:1059F0007DFF002001F07AFFC42001F077FF002036
:105A000001F074FFCD2001F071FF002001F06EFF66
:105A1000D32001F06BFF002001F068FFDD2001F0D2
:105A200065FF002001F062FFF32001F05FFF00201E
:105A300001F05CFFE52001F065FF002001F056FF5A
:105A4000002001F053FF002001F050FF002001F082
:105A50004DFF022001F04AFF002001F047FF2920FE
:105A600001F044FF002001F041FF3C2001F03EFF27
:105A7000002001F03BFF4B2001F038FF002001F037
:105A800035FF5D2001F032FF002001F02FFF742070
:105A900001F02CFF002001F029FF842001F026FFF7
:105AA000002001F023FF932001F020FF002001F0EF
:105AB0001DFFA22001F01AFF002001F017FFB32004
:105AC00001F014FF002001F011FFBE2001F00EFFD5
:105AD000002001F00BFFC42001F008FF002001F0BE
